:100000001FC039C038C037C072C235C034C033C019
:1000100032C031C030C02FC02EC02DC02CC02BC06C
:100020002AC029C028C027C026C025C024C023C09C
:1000300022C021C06364696E6F70737578585B006D
:1000400011241FBECFEFCDBFDFE3DEBF1FE3A0E073
:10005000BFE3E6EEFCE002C005900D92A230B107CE
:10006000D9F72FE3A2E0BFE301C01D92AA39B2077E
:10007000E1F781D1CAC5C4CFE0E0FAE081E0808336
:1000800083E4818384E0828380E890E084A795A75D
:100090008FEF90E086A397A308951092983F109257
:1000A000993F85E092E08093983F9093993F08951F
:1000B000F8948091983F9091993F969587950197F4
:1000C000F1F78091983F9091993F0197F1F790E077
:1000D00080E010C086952091280425FF02C020E80A
:1000E00001C020E0822BE091983FF091993F319739
:1000F000F1F79F5F983070F378940895F894E0E2F8
:10010000F4E094819F7E9483E091983FF091993F31
:100110003197F1F798E015C080FF06C0E0E2F4E007
:1001200024812061248305C0E0E2F4E024812F7E55
:100130002483E091983FF091993F3197F1F78695AC
:1001400091509111E9CFE0E2F4E0848180618483F1
:100150008091983F9091993F0197F1F77894089595
:10016000877090E0880F991F8160E0E0FAE080835B
:1001700084E085830895E0E0FAE086A397A384E015
:1001800085830895E0E0FAE084A795A784E085835D
:100190000895EF92FF920F931F93CF93C0E0C43660
:1001A000F0F49091003F9111FCCFEC2EF12C80DF08
:1001B00087010C5C104CF8018083A0DFF80180817E
:1001C000882359F08A3011F08D3029F4F701EB5C67
:1001D000F04C108202C0CF5FE2CF8C2F01C08FEFB6
:1001E000CF911F910F91FF90EF9008950F931F9360
:1001F000CF938C01C0E002C081DFCF5FF801EC0F2C
:10020000F11D80818111F8CFCF911F910F91089539
:100210000F931F93CF93DF938A011092333FC3E371
:10022000DFE39801012E000C440B550B73D1FB0149
:10023000EB52F34780818A93622F732F842F952F7F
:10024000611571058105910561F7CE01DF91CF91AF
:100250001F910F910895CF92DF92EF92FF920F932B
:100260001F93CF93DF93CDB7DEB7FE013B9601918D
:1002700011917F0173C042DF0F5F1F4FF801808132
:10028000882309F46FC0F80180818532A1F781814C
:100290008F36C1F128F4833661F0843699F05AC064
:1002A000853709F1883709F446C0833709F052C011
:1002B00038C06701F2E0CF0ED11CF70180811EDF4C
:1002C00076014AC06701F2E0CF0ED11CF7016081D0
:1002D0007181072E000C880B990B4AE050E098DFE3
:1002E00085DF760139C06701F4E0CF0ED11CF7013C
:1002F00060817181828193814AE050E089DF76DFFD
:1003000076012AC06701F4E0CF0ED11CF7016081AD
:1003100071818281938148E050E07ADF67DF760166
:100320001BC06701F2E0CF0ED11CF70180819181E3
:100330005DDF760111C06701F4E0CF0ED11CF7013B
:10034000608171818281938140E150E061DF4EDF05
:10035000760102C085E2D2DE0E5F1F4FF801808178
:10036000811191CFDF91CF911F910F91FF90EF906D
:10037000DF90CF900895CF93DF93CDB7DEB7259769
:10038000CDBFDEBF88ED84BF1092600084BF1092A5
:10039000610000E214E084E1F801808380E184835D
:1003A00080E090E0FC013197F1F7FC013197F1F723
:1003B0000197F1F761DE71DE80E2F80181878BE061
:1003C000858B78948EE09CE89F938F9344DF82E343
:1003D0008D8319821A821B821C82DBDECE01059678
:1003E0009F938F9304979F938F9381E19CE89F93B2
:1003F0008F9384E39FE39F938F93C4D0CDBFDEBFE1
:1004000018161906ECF0CE0105969F938F9304976A
:100410009F938F938AE19CE89F938F9384E39FE35C
:100420009F938F93AFD0CDBFDEBF1816190644F04F
:1004300083E29CE89F938F930EDF0F900F90C2CFC3
:1004400029813A814B815C812134F2E43F07FFE04E
:100450004F07510598F01F928FE08F9382E48F939E
:1004600080E48F938EE89CE89F938F93F4DE0F9047
:100470000F900F900F900F900F90A4CF60E07DE24F
:1004800081E391E047D069017A0180E090E005C006
:10049000F694E794D794C7940196C114D10421E04F
:1004A000E206F104A8F75CDE1D81A12FB0E0A701F0
:1004B000960152D024E630E040E050E02BD04901D4
:1004C0005A011F921F938C818F938B818F938A8106
:1004D0008F9389818F9382EA9CE89F938F93BBDEF1
:1004E000C60149DEC4014EDECDBFDEBF6BCF1F9219
:1004F0000F920FB60F9211248F938091280485FBE1
:10050000882780F98093003F8F910F900FBE0F9046
:100510001F901895A1E21A2EAA1BBB1BFD010DC04E
:10052000AA1FBB1FEE1FFF1FA217B307E407F507A3
:1005300020F0A21BB30BE40BF50B661F771F881F7F
:10054000991F1A9469F760957095809590959B0115
:10055000AC01BD01CF01089509D0A59F900DB49FB6
:10056000900DA49F800D911D11240895A29FB001AC
:10057000B39FC001A39F01D0B29F700D811D1124B4
:10058000911D0895AEE0B0E0E7ECF2E01DC385E018
:100590008C838B899C8989839A83AE01495E5F4FE6
:1005A0006D897E89CE01019690D12E96E2E025C319
:1005B00020FD09C0FC0123FD05C022FF02C073839A
:1005C000628351834083089544FD17C046FD17C0E0
:1005D000AB01BC01DA01FB01AA0FBB1FEE1FFF1F1D
:1005E0001094D1F74A0F5B1F6E1F7F1FCB01BA011A
:1005F000660F771F881F991F09C033E001C034E0E0
:10060000660F771F881F991F3150D1F7620F711D38
:10061000811D911D08950F931F93CF93DF938C013C
:10062000C80168D2EC0197FD06C050D2892BC1F7F2
:10063000B801CE019DD2CE01DF91CF911F910F91D4
:1006400008958F929F92AF92BF92EF92FF920F9375
:100650001F93CF93DF938C01D62F7A01B22E4AD20B
:100660009C0133272B32310531F02D32310559F4FD
:100670008B2D8068B82ED15011F480E061C0C80184
:1006800039D297FDFACFCB2DCD7F2B2D2073F9F4E6
:100690008033E9F4AA24AA94AD0E09F43EC0C8013F
:1006A00029D297FD3AC09C012F7D3327283531058B
:1006B00041F4C264D25089F1C8011CD297FF07C02F
:1006C0002CC0B6FE02C0C26001C0C261DA2D812C0E
:1006D000912C540120ED280F283078F0C4FF03C07E
:1006E000B80146D217C02A3040F0C6FFF9CF2F7D9F
:1006F0003FEE320F3630A0F727504C2FC501B40122
:1007000063DF4B015C01C260D15051F0C801F2D1EE
:1007100097FFE0CFC1FD04C0B0CF812C912C5401D4
:10072000C7FF08C0B094A09490948094811C911C41
:10073000A11CB11C2C2FB501A401C70139DF81E038
:10074000DF91CF911F910F91FF90EF90BF90AF90ED
:100750009F908F900895A0E2B0E0E0EBF3E027C215
:100760005C01962E7A01F9018E010F5F1F4F68011F
:1007700080E2D8011D928A95E9F7D50113968C90F5
:1007800080E090E0612C712C30E061E070E083FC4F
:10079000259183FE21918F01522E211103C080E00B
:1007A00090E090C02E3511F4009751F1432F50E0A6
:1007B000481759073CF42D3559F12D3219F477209B
:1007C00009F103C0772009F468C0452D4695469588
:1007D0004695D601A40FB11D452D47708B0102C06F
:1007E000000F111F4A95E2F7A8015C91452B4C932D
:1007F000651459F0561410F45394E7CF5A94E5CF8A
:1008000031E004C07724739401C0712C0196BFCFEE
:10081000772019F08E8180628E83311103C0882485
:10082000839417C0F6019E012F5D3F4F8081809514
:1008300081932E173F07D1F7F2CFE114F10429F08D
:10084000D7018C93F70131967F019A94812C9920DE
:10085000E9F0C5014FD197FD17C0FC01FF2723E048
:10086000F595E7952A95E1F7EC0DFD1D208130E027
:10087000AC014770552702C0359527954A95E2F798
:1008800020FDDBCFB50174D1811089CFE114F104D3
:1008900011F0D7011C92C80115C0422F469546950C
:1008A0004695D601A40FB11D422F47708B0102C09F
:1008B000000F111F4A95E2F7A8015C91452B4C935C
:1008C000622EA4CFA096EFE08BC1A0E0B0E0EAE6F4
:1008D000F4E06DC16C01EB015A01FC011682178234
:1008E000512CF601E380FE01E3FC8591E3FE81914A
:1008F000182FEF01882309F4E0C090E0E7D0892B9E
:1009000019F0C60188DEEDCF153241F4FE01E3FC9B
:100910001591E3FE1191EF01153271F4C601EAD091
:1009200097FDC9C0412F50E09C013327241735079C
:10093000C1F2B6011DD1C1C01A3239F4E3FC1591E0
:10094000E3FE1191EF0101E001C000E0F12C20ED88
:10095000210F2A3078F402606F2D70E080E090E083
:1009600040E232DEF62EFE01E3FC1591E3FE11912A
:10097000EF01EDCF01FF03C0F11003C09EC0FF24C3
:10098000FA94183619F01C3651F010C0FE01E3FC41
:100990001591E3FE1191EF01183641F408600460EF
:1009A000FE01E3FC1591E3FE1191EF01112309F41F
:1009B00084C0612F70E084E390E091D0892B09F42A
:1009C0007CC000FD07C0F50180809180C5010296C2
:1009D0005C0102C0812C912C1E3649F4F60146813F
:1009E000578160E070E0202FC401E2DD7ACF13363A
:1009F000A1F401FD02C0FF24F394C6017BD097FD52
:100A00005AC08114910429F0F4018083C401019635
:100A10004C01FA94F110F1CF4AC01B3551F49E01FC
:100A2000A4016F2DC60197DEEC01892B09F03FC0B0
:100A300039C0C601F0DD97FD3EC01F3649F128F4EC
:100A4000143621F1193639F125C0133771F01537F5
:100A5000E9F020C08114910429F0F4016082C401FE
:100A600001964C01FA94FF2059F0C60143D03C0195
:100A700097FD06C02BD0892B69F3B601C30178D04E
:100A800081149104A1F0F401108211C0006203C02E
:100A9000006101C00064202FA4016F2DC601D1DDCB
:100AA000811105C0F6018381807329F406C000FD21
:100AB00018CF539416CF552019F0852D90E002C021
:100AC0008FEF9FEFCDB7DEB7EFE08AC091110C94A6
:100AD000D105803219F089508550C8F70895FC017E
:100AE0000590061621F00020D9F7C001089531972E
:100AF000CF010895CF93DF93EC012B8120FF33C00A
:100B000026FF0AC02F7B2B838E819F8101968E83C7
:100B10009F838A8190E029C022FF0FC0E881F9817C
:100B20008081082E000C990B009719F420622B830A
:100B30001AC03196E883F9830EC0EA85FB850995D2
:100B400097FF09C02B81019611F080E201C080E17E
:100B5000822B8B8308C02E813F812F5F3F4F2E83D6
:100B60003F83992702C08FEF9FEFDF91CF910895C8
:100B7000FB01238120FF12C026FD10C08F3F3FEFF5
:100B8000930761F082832F7D206423832681378140
:100B90002150310926833783992708958FEF9FEFDE
:100BA00008959927882708952F923F924F925F9238
:100BB0006F927F928F929F92AF92BF92CF92DF926D
:100BC000EF92FF920F931F93CF93DF93CDB7DEB7D2
:100BD000CA1BDB0BCDBFDEBF09942A883988488841
:100BE0005F846E847D848C849B84AA84B984C88449
:100BF000DF80EE80FD800C811B81AA81B981CE0F40
:0E0C0000D11DCDBFDEBFED010895F894FFCFEA
:100C0E002D3E00256C75202568687500256C7820B2
:100C1E00256868780062727568206572726F72203E
:100C2E00796F75206D6F726F6E20746865207379A1
:100C3E006E746178206973203220382062697420C6
:100C4E00686578206F7220646563696D616C206ED3
:100C5E00756D62657273207468617420726570655B
:100C6E007273656E742074686520746F7020616E87
:100C7E00642074686520616E642070776D0A0D00C3
:100C8E000A0D6D617820667265713A2025752048CF
:100C9E005A0A0D000A0D2B2D2D2D2D2D2D2D2D2B00
:100CAE000A0D667265713A20257520485A0A0D7034
:100CBE00776D3A20256425200A0D2B2D2D2D2D2DF7
:100CCE002D2D2D2B0A0D0030313233343536373879
:080CDE00394142434445460040
:020CE60001000B
:00000001FF
